:100000000C942A000C9434000C9434000C943400AA
:100010000C9434000C9434000C9434000C94340090
:100020000C9434000C9434000C9434000C94340080
:100030000C9434000C9434000C9434000C94340070
:100040000C9434000C9434000C9434000C94340060
:100050000C94340011241FBECFE5D8E0DEBFCDBF25
:100060000E9449020C946D020C940000DF93CF9320
:100070000F92CDB7DEB71982EAE3F0E08FE7808315
:10008000E7E3F0E08EEF8083E4E3F0E086E980834D
:10009000E1E3F0E086E98083EBE3F0E01082E8E35F
:1000A000F0E081E98083E5E3F0E01082E2E3F0E054
:1000B000108281E0898389810F90CF91DF9108952B
:1000C000DF93CF9300D000D00F92CDB7DEB78A83F5
:1000D0006B8319828A81843008F075C08B818830E7
:1000E00008F071C081E089838A81282F30E03D8348
:1000F0002C838C819D818130910549F12C813D813A
:10010000223031052CF48C819D81009761F05DC017
:100110002C813D812230310571F18C819D818330AC
:100120009105E9F152C0ABE3B0E0EBE3F0E0808190
:10013000482F8B81282F30E081E090E0022E02C012
:10014000880F991F0A94E2F7842B8C933EC0A8E392
:10015000B0E0E8E3F0E08081482F8B81282F30E089
:1001600081E090E0022E02C0880F991F0A94E2F706
:10017000842B8C932AC0A5E3B0E0E5E3F0E0808116
:10018000482F8B81282F30E081E090E0022E02C0C2
:10019000880F991F0A94E2F7842B8C9316C0A2E370
:1001A000B0E0E2E3F0E08081482F8B81282F30E03F
:1001B00081E090E0022E02C0880F991F0A94E2F7B6
:1001C000842B8C9302C083E0898389810F900F90E8
:1001D0000F900F900F90CF91DF910895DF93CF9301
:1001E00000D000D00F92CDB7DEB78A836B8319821F
:1001F0008A81843008F07AC08B81883008F076C01C
:1002000081E089838A81282F30E03D832C838C8193
:100210009D818130910559F12C813D81223031053C
:100220002CF48C819D81009769F062C02C813D8106
:100230002230310589F18C819D818330910509F44B
:1002400040C056C0ABE3B0E0EBE3F0E08081482F64
:100250008B81282F30E081E090E0022E02C0880FD1
:10026000991F0A94E2F7809584238C9341C0A8E3F8
:10027000B0E0E8E3F0E08081482F8B81282F30E068
:1002800081E090E0022E02C0880F991F0A94E2F7E5
:10029000809584238C932CC0A5E3B0E0E5E3F0E0E7
:1002A0008081482F8B81282F30E081E090E0022E62
:1002B00002C0880F991F0A94E2F7809584238C93DB
:1002C00017C0A2E3B0E0E2E3F0E08081482F8B8129
:1002D000282F30E081E090E0022E02C0880F991FA5
:1002E0000A94E2F7809584238C9302C083E089838B
:1002F00089810F900F900F900F900F90CF91DF9109
:100300000895DF93CF930F92CDB7DEB71982EAE35A
:10031000F0E08FE78083E7E3F0E08EEF8083E4E3B3
:10032000F0E086E98083E1E3F0E086E98083EBE3B7
:10033000F0E01082E8E3F0E081E98083E5E3F0E0BB
:100340001082E2E3F0E0108281E0898389810F90DE
:10035000CF91DF910895DF93CF93CDB7DEB7279785
:100360000FB6F894DEBF0FBECDBF8A836B835D836B
:100370004C8319828C819D81009709F47EC08A810B
:10038000843008F077C08B81883008F073C081E03A
:1003900089838A81282F30E03F832E834E815F81BD
:1003A0004130510559F18E819F818230910534F49D
:1003B0002E813F812115310569F061C04E815F8139
:1003C0004230510579F18E819F818330910509F486
:1003D0003DC055C0E9E3F0E08081282F30E08B81FB
:1003E000882F90E0A90102C0559547958A95E2F7BC
:1003F000CA018170EC81FD81808341C0E6E3F0E0B9
:100400008081282F30E08B81882F90E0A90102C0E5
:10041000559547958A95E2F7CA018170EC81FD8177
:1004200080832DC0E3E3F0E08081282F30E08B81D2
:10043000882F90E0A90102C0559547958A95E2F76B
:10044000CA018170EC81FD81808319C0E0E3F0E096
:100450008081282F30E08B81882F90E0A90102C095
:10046000559547958A95E2F7CA018170EC81FD8127
:10047000808305C083E0898302C082E0898389810B
:1004800027960FB6F894DEBF0FBECDBFCF91DF9198
:100490000895DF93CF9300D0CDB7DEB70E948101DE
:1004A0000E94360084E18A839E012E5F3F4F81E0E7
:1004B00060E0A9010E94AB01898389818130A1F7A5
:1004C0008A81882329F480E060E00E946000ECCFFC
:0E04D00080E060E00E94EE00E7CFF894FFCFDE
:00000001FF
