:100000000C942A000C9434000C9434000C943400AA
:100010000C9434000C9434000C9434000C94340090
:100020000C9434000C9434000C9434000C94340080
:100030000C9434000C9434000C9434000C94340070
:100040000C9434000C9434000C9434000C94340060
:100050000C94340011241FBECFE5D8E0DEBFCDBF25
:100060000E9436000C94FE010C940000DF93CF93A5
:1000700000D0CDB7DEB70E945A000E94220184E171
:100080008A839E012E5F3F4F81E060E0A9010E94BC
:100090008400898389818130A1F78A81882329F4AA
:1000A00080E060E00E944C01ECCF80E060E00E94C4
:1000B000A501E7CFDF93CF930F92CDB7DEB71982BB
:1000C000EAE3F0E08FE78083E7E3F0E08EEF808300
:1000D000E4E3F0E086E98083E1E3F0E086E9808311
:1000E000EBE3F0E01082E8E3F0E081E98083E5E310
:1000F000F0E01082E2E3F0E0108281E08983898100
:100100000F90CF91DF910895DF93CF93CDB7DEB7F6
:1001100027970FB6F894DEBF0FBECDBF8A836B83DF
:100120005D834C8319828C819D81009709F47EC088
:100130008A81843008F077C08B81883008F073C0E2
:1001400081E089838A81282F30E03F832E834E818E
:100150005F814130510559F18E819F818230910537
:1001600034F42E813F812115310569F061C04E8143
:100170005F814230510579F18E819F8183309105F5
:1001800009F43DC055C0E9E3F0E08081282F30E05C
:100190008B81882F90E0A90102C0559547958A95DB
:1001A000E2F7CA018170EC81FD81808341C0E6E302
:1001B000F0E08081282F30E08B81882F90E0A9012A
:1001C00002C0559547958A95E2F7CA018170EC8186
:1001D000FD8180832DC0E3E3F0E08081282F30E0B3
:1001E0008B81882F90E0A90102C0559547958A958B
:1001F000E2F7CA018170EC81FD81808319C0E0E3E0
:10020000F0E08081282F30E08B81882F90E0A901D9
:1002100002C0559547958A95E2F7CA018170EC8135
:10022000FD81808305C083E0898302C082E08983E9
:10023000898127960FB6F894DEBF0FBECDBFCF9150
:10024000DF910895DF93CF930F92CDB7DEB7198278
:10025000EAE3F0E08FE78083E7E3F0E08EEF80836E
:10026000E4E3F0E086E98083E1E3F0E086E980837F
:10027000EBE3F0E01082E8E3F0E081E98083E5E37E
:10028000F0E01082E2E3F0E0108281E0898389816E
:100290000F90CF91DF910895DF93CF9300D000D0DE
:1002A0000F92CDB7DEB78A836B8319828A8184303F
:1002B00008F040C08B818830E8F581E089838A812D
:1002C000282F30E03D832C838C819D8181309105E6
:1002D000E1F02C813D81223031052CF48C819D810F
:1002E000009761F029C02C813D8122303105A1F0B9
:1002F0008C819D8183309105B1F01EC0EBE3F0E06D
:10030000ABE3B0E08C91808317C0E8E3F0E0A8E3B2
:10031000B0E08C91808310C0E5E3F0E0A5E3B0E0AD
:100320008C91808309C0E2E3F0E0A2E3B0E08C911D
:10033000808302C083E0898389810F900F900F90A2
:100340000F900F90CF91DF910895DF93CF9300D05E
:1003500000D00F92CDB7DEB78A836B8319828A8172
:10036000843008F040C08B818830E8F581E08983D3
:100370008A81282F30E03D832C838C819D818130C0
:100380009105E1F02C813D81223031052CF48C81E6
:100390009D81009761F029C02C813D81223031057B
:1003A000A1F08C819D8183309105B1F01EC0EBE3FB
:1003B000F0E0ABE3B0E08C91808317C0E8E3F0E0BD
:1003C000A8E3B0E08C91808310C0E5E3F0E0A5E302
:1003D000B0E08C91808309C0E2E3F0E0A2E3B0E0FA
:1003E0008C91808302C083E0898389810F900F9074
:1003F0000F900F900F90CF91DF910895F894FFCF59
:00000001FF
