:100000000C942A000C943F000C943F000C943F0089
:100010000C943F000C943F000C943F000C943F0064
:100020000C943F000C943F000C943F000C943F0054
:100030000C943F000C943F000C943F000C943F0044
:100040000C943F000C943F000C943F000C943F0034
:100050000C943F0011241FBECFE5D8E0DEBFCDBF1A
:1000600010E0A0E6B0E0E2E3F1E002C005900D92FE
:10007000A437B107D9F70E9441000C9497000C9463
:100080000000CF93DF93CDB7DEB764970FB6F89437
:10009000DEBF0FBECDBF1BBA1ABA8FEF90E09CBB7C
:1000A0008BBB92BB81BB84E1E0E6F0E0DE01119600
:1000B00001900D928A95E1F78FE390E093BB82BBAC
:1000C00020E030E089B39AB380FD16C029303105B5
:1000D00010F42F5F3F4FF901EE0FFF1F81E090E01A
:1000E0008C0F9D1FE80FF91F8081918193BB82BB0C
:1000F00089B39AB380FFFCCF89B39AB381FDE2CF75
:100100002115310511F021503109F901EE0FFF1FC2
:1001100081E090E08C0F9D1FE80FF91F8081918195
:1001200093BB82BB89B39AB381FFFCCFCBCFF8944A
:02013000FFCFFF
:100132003F0006005B004F0066006D007D00070077
:040142007F006F00CB
:00000001FF
