S00D00007461736B322E7372656332
S11300000C942A000C9434000C9434000C943400A6
S11300100C9434000C9434000C9434000C9434008C
S11300200C9434000C9434000C9434000C9434007C
S11300300C9434000C9434000C9434000C9434006C
S11300400C9434000C9434000C9434000C9434005C
S11300500C94340011241FBECFE5D8E0DEBFCDBF21
S11300600E9436000C947D000C9400008FEF90E009
S11300709BBB8ABB1CBA1BBA20E030E019C081E0EC
S113008090E0022E02C0880F991F0A94E2F74BB346
S11300905CB3842B952B9CBB8BBB4FEF80E792E02A
S11300A0415080409040E1F700C000002F5F3F4F77
S11300B02830310524F320E030E01BC081E090E0DB
S11300C0022E02C0880F991F0A94E2F7809590953A
S11300D04BB35CB3842395239CBB8BBB4FEF80E76E
S11300E092E0415080409040E1F700C000002F5F53
S11100F03F4F2830310514F3BFCFF894FFCFF3
S9030000FC
