S00D00007461736B312E7372656333
S11300000C942A000C9434000C9434000C943400A6
S11300100C9434000C9434000C9434000C9434008C
S11300200C9434000C9434000C9434000C9434007C
S11300300C9434000C9434000C9434000C9434006C
S11300400C9434000C9434000C9434000C9434005C
S11300500C94340011241FBECFE5D8E0DEBFCDBF21
S11300600E9436000C945D000C9400008AB39BB38C
S113007081609BBB8ABB8BB39CB38E7F9CBB8BBBC9
S11300808BB39CB381609CBB8BBB2FEF80E792E06A
S1130090215080409040E1F700C000008BB39CB336
S11300A08E7F9CBB8BBB2FEF80E792E0215080407A
S11100B09040E1F700C00000E3CFF894FFCFCA
S9030000FC
