:100000000C942A000C944D0B0C94800B0C94B30BA5
:100010000C9447000C9447000C9447000C94470044
:100020000C9447000C9447000C94F3090C94DC09E1
:100030000C9447000C9447000C9447000C94470024
:100040000C9447000C9447000C9447000C94470014
:100050000C94470011241FBECFE5D8E0DEBFCDBF12
:1000600011E0A0E6B0E0EEE1F3E202C005900D92EF
:10007000A038B107D9F711E0A0E8B1E001C01D92A6
:10008000A039B107E1F70E9444110C948D110C9432
:100090000000EF92FF920F931F937B018C0120E0F1
:1000A00030E040E05FE40E94250488238CF0C80122
:1000B000B70120E030E040E05FE40E94C1010E940F
:1000C00055049B01AC01205030404040504806C0D0
:1000D000C801B7010E9455049B01AC01B901CA01D6
:1000E0001F910F91FF90EF900895A0E0B0E0EBE733
:1000F000F0E00C945611DC012B01FA019C91923036
:1001000008F439C1EB018881823008F433C194309E
:1001100069F4843009F02FC111969C91119789815F
:10012000981709F428C1A0E6B0E025C1843009F48D
:1001300021C18230A9F4923009F01DC19A01AD01AC
:1001400088E0EA010990AE01E90109929E0181501F
:10015000C1F7E201898111969C918923818308C1AD
:10016000923009F407C112962D903C901397EB0141
:100170008A819B811496AD90BD90CD90DC901797AD
:10018000EC80FD800E811F819101281B390BB90184
:1001900037FF04C066277727621B730B6032710537
:1001A0000CF061C0121613066CF537014801062EDB
:1001B00004C096948794779467940A94D2F721E0C8
:1001C00030E040E050E004C0220F331F441F551FB1
:1001D0006A95D2F721503040404050402E213F21B7
:1001E00040235123211531054105510521F021E01E
:1001F00030E040E050E079018A01E628F72808293C
:1002000019293CC0232BD1F1260E371E350146019A
:10021000062E04C096948794779467940A94D2F734
:1002200021E030E040E050E004C0220F331F441FC3
:10023000551F6A95D2F721503040404050402A2146
:100240003B214C215D21211531054105510521F04E
:1002500021E030E040E050E059016A01A628B728CB
:10026000C828D9280BC0821593052CF01C01AA249C
:10027000BB24650103C0EE24FF24870111969C91E5
:10028000D20111968C91981709F445C0992339F041
:10029000A80197012A193B094C095D0906C0A6016E
:1002A00095012E193F09400B510B57FD08C01182D3
:1002B0003382228224833583468357831DC081E0A5
:1002C00081833382228288279927DC01821B930B4A
:1002D000A40BB50B84839583A683B7830DC0220F2F
:1002E000331F441F551F24833583468357838281E0
:1002F000938101979383828324813581468157813D
:10030000DA01C9010197A109B1098F5F9F4FAF4F72
:10031000BF4328F30BC0918333822282EA0CFB1C7B
:100320000C1D1D1DE482F5820683178383E0808304
:10033000248135814681578157FF1AC0C901AA27F8
:1003400097FDA095BA2F81709070A070B0705695EF
:10035000479537952795822B932BA42BB52B848318
:100360009583A683B7838281938101969383828349
:10037000DF0101C0D201CD01CDB7DEB7E2E10C94BF
:100380007211A0E2B0E0E7ECF1E00C946211698335
:100390007A838B839C832D833E834F835887E9E048
:1003A000EE2EF12CEC0EFD1ECE010196B7010E943F
:1003B00046068E010F5E1F4FCE010596B8010E94C2
:1003C00046068A8991E089278A8BC701B801AE0168
:1003D000475E5F4F0E9475000E947105A096E6E09F
:1003E0000C947E11A0E2B0E0E8EFF1E00C94621111
:1003F00069837A838B839C832D833E834F835887C5
:10040000F9E0EF2EF12CEC0EFD1ECE010196B701A6
:100410000E9446068E010F5E1F4FCE010596B80161
:100420000E944606C701B801AE01475E5F4F0E94B9
:1004300075000E947105A096E6E00C947E11A0E282
:10044000B0E0E5E2F2E00C94561169837A838B8385
:100450009C832D833E834F835887CE010196BE0136
:10046000675F7F4F0E944606CE010596BE016F5E14
:100470007F4F0E9446069985923088F089898230A4
:10048000C8F0943019F4823051F404C0843029F457
:10049000923081F480E690E0C6C0923049F420E0CA
:1004A0009A858A89981321E02A87CE010996BBC0D4
:1004B000823049F420E09A858A89981321E02A8BBA
:1004C000CE014196B0C02D843E844F8458886D88FB
:1004D0007E888F88988CEE24FF248701AA24BB2471
:1004E000650140E050E060E070E0E0E0F0E0C10174
:1004F00081709070892BE9F0E60CF71C081D191D1E
:100500009A01AB012A0D3B1D4C1D5D1D80E090E062
:10051000A0E0B0E0E614F7040805190520F481E036
:1005200090E0A0E0B0E0BA01A901480F591F6A1F8E
:100530007B1FAA0CBB1CCC1CDD1C97FE08C081E0F5
:1005400090E0A0E0B0E0A82AB92ACA2ADB2A3196B6
:10055000E032F10549F0660C771C881C991C569412
:10056000479437942794C3CFFA85EA892B893C892D
:100570008B859C85280F391F2E5F3F4F17C0CA01FE
:1005800081709070892B61F016950795F794E79428
:1005900080E090E0A0E0B0E8E82AF92A0A2B1B2BC3
:1005A00076956795579547952F5F3F4F77FDE7CF36
:1005B0000CC0440F551F661F771F17FD4160EE0CDE
:1005C000FF1C001F111F21503040403090E05907A0
:1005D00090E0690790E4790760F32B8F3C8FDB0193
:1005E000CA018F779070A070B07080349105A1051A
:1005F000B10561F447FD0AC0E114F10401051105DC
:1006000029F0405C5F4F6F4F7F4F40781A8EFE1786
:1006100011F081E08A8F4D8F5E8F6F8F78A383E01A
:10062000898FCE0149960E947105A096E2E10C9453
:100630007211A8E1B0E0EFE1F3E00C945E11698380
:100640007A838B839C832D833E834F835887B9E0C5
:10065000EB2EF12CEC0EFD1ECE010196B7010E948F
:1006600046068E010F5E1F4FCE010596B8010E940F
:1006700046062985223008F47EC03989323010F4CC
:10068000B8017CC08A859A8989278A87243011F02D
:10069000223031F4231709F06EC060E670E06EC0BE
:1006A000343039F41D861E861F86188A1C861B86E8
:1006B00004C0323021F484E08987B7015FC02B8504
:1006C0003C858B899C89281B390B3C872B87ED84C3
:1006D000FE840F851889AD88BE88CF88D88CEA142F
:1006E000FB040C051D0540F4EE0CFF1C001F111F40
:1006F000215030403C872B8720E030E040E050E044
:1007000080E090E0A0E0B0E460E070E0EA14FB0478
:100710000C051D0540F0282B392B4A2B5B2BEA18C2
:10072000FB080C091D09B695A79597958795EE0CC2
:10073000FF1C001F111F6F5F7F4F6F31710531F775
:10074000DA01C9018F779070A070B0708034910584
:10075000A105B10561F427FD0AC0E114F10401050A
:10076000110529F0205C3F4F4F4F5F4F20782D87B8
:100770003E874F87588BBE01675F7F4FCB010E943A
:1007800071056896EAE00C947A11A8E1B0E0EBEC10
:10079000F3E00C94621169837A838B839C832D83AD
:1007A0003E834F83588789E0E82EF12CEC0EFD1E26
:1007B000CE010196B7010E9446068E010F5E1F4FC3
:1007C000CE010596B8010E9446068985823040F028
:1007D0008989823028F0C701B8010E94BE0601C095
:1007E00081E06896E6E00C947E11A8E1B0E0EBEFC2
:1007F000F3E00C94621169837A838B839C832D834D
:100800003E834F83588789E0E82EF12CEC0EFD1EC5
:10081000CE010196B7010E9446068E010F5E1F4F62
:10082000CE010596B8010E9446068985823040F0C7
:100830008989823028F0C701B8010E94BE0601C034
:100840008FEF6896E6E00C947E11A8E1B0E0EBE251
:10085000F4E00C94621169837A838B839C832D83EB
:100860003E834F83588789E0E82EF12CEC0EFD1E65
:10087000CE010196B7010E9446068E010F5E1F4F02
:10088000CE010596B8010E9446068985823040F067
:100890008989823028F0C701B8010E94BE0601C0D4
:1008A0008FEF6896E6E00C947E11ACE0B0E0EBE5EB
:1008B000F4E00C94661169837A838B839C83CE0168
:1008C0000196BE016B5F7F4F0E9446068D8182308C
:1008D00061F1823050F1843021F48E81882351F10E
:1008E0002EC02F81388537FD20C06E812F31310514
:1008F0001CF06623F9F023C08EE190E0821B930B7D
:1009000029853A854B855C8504C056954795379572
:1009100027958A95D2F76623B1F05095409530958A
:1009200021953F4F4F4F5F4F0EC020E030E040E039
:1009300050E009C02FEF3FEF4FEF5FE704C020E02A
:1009400030E040E050E8B901CA012C96E2E00C9496
:100950008211A8E0B0E0EFEAF4E00C945E117B01B4
:100960008C01611571058105910519F482E0898377
:1009700060C083E089838EE1C82ED12CDC82CB82DB
:10098000ED82FE820F831887C801B7010E942205FD
:10099000FC013197F7FF3BC0222733272E1B3F0B6B
:1009A00057016801022E04C0D694C794B794A79447
:1009B0000A94D2F740E050E060E070E081E090E01F
:1009C000A0E0B0E004C0880F991FAA1FBB1F2A95A2
:1009D000D2F70197A109B1098E219F21A023B1234C
:1009E0000097A105B10521F041E050E060E070E022
:1009F0004A295B296C297D294D835E836F83788723
:100A00008EE190E08E1B9F0B9C838B8312C03097EE
:100A100081F00E2E04C0EE0CFF1C001F111F0A9463
:100A2000D2F7ED82FE820F831887CE1ADF0ADC82AE
:100A3000CB821A82CE0101960E9471052896EAE0C7
:100A40000C947A11EF92FF920F931F937B018C010C
:100A500080E0E81680E0F80681E0080780E01807EB
:100A600088F48FEFE816F1040105110531F028F044
:100A700088E090E0A0E0B0E017C080E090E0A0E067
:100A8000B0E012C080E0E81680E0F80680E00807D9
:100A900081E0180728F088E190E0A0E0B0E004C011
:100AA00080E190E0A0E0B0E020E230E040E050E003
:100AB000281B390B4A0B5B0B04C016950795F7945E
:100AC000E7948A95D2F7F701E859FF4F8081281BF8
:100AD000310941095109C9011F910F91FF90EF9010
:100AE0000895DF92EF92FF920F931F93FC01E48031
:100AF000F58006811781D1808081823048F480E0C2
:100B000090E0A0E1B0E0E82AF92A0A2B1B2BA5C04F
:100B1000843009F49FC0823021F4EE24FF24870141
:100B200005C0E114F1040105110519F4E0E0F0E05D
:100B300096C0628173819FEF623879070CF05BC0C9
:100B400022E83FEF261B370B2A3131052CF020E03D
:100B500030E040E050E02AC0B801A701022E04C0F6
:100B600076956795579547950A94D2F781E090E07E
:100B7000A0E0B0E004C0880F991FAA1FBB1F2A95F0
:100B8000D2F70197A109B1098E219F21A023B1239A
:100B90000097A105B10521F081E090E0A0E0B0E070
:100BA0009A01AB01282B392B4A2B5B2BDA01C901A7
:100BB0008F779070A070B07080349105A105B10559
:100BC00039F427FF09C0205C3F4F4F4F5F4F04C0EF
:100BD000215C3F4F4F4F5F4FE0E0F0E02030A0E05E
:100BE0003A07A0E04A07A0E45A0710F0E1E0F0E07D
:100BF00079018A0127C06038710564F5FB01E1586D
:100C0000FF4FD801C7018F779070A070B07080340B
:100C10009105A105B10539F4E7FE0DC080E490E02F
:100C2000A0E0B0E004C08FE390E0A0E0B0E0E80E08
:100C3000F91E0A1F1B1F17FF05C016950795F7948D
:100C4000E794319687E016950795F794E7948A958F
:100C5000D1F705C0EE24FF248701EFEFF0E06E2FFF
:100C6000679566276795902F9F77D794DD24D79453
:100C70008E2F8695492F462B582F5D29B701CA0123
:100C80001F910F91FF90EF90DF900895FC01DB0121
:100C9000408151812281622F6F7770E0221F2227CD
:100CA000221F9381892F880F822B282F30E0991FD4
:100CB0009927991F11969C93119721153105A9F534
:100CC000411551056105710511F482E037C082E8D4
:100CD0009FEF13969C938E9312979A01AB0167E056
:100CE000220F331F441F551F6A95D1F783E08C9361
:100CF0000DC0220F331F441F551F12968D919C91DA
:100D00001397019713969C938E931297203080E04F
:100D1000380780E0480780E4580758F314962D936D
:100D20003D934D935C93179708952F3F310579F4C8
:100D3000411551056105710519F484E08C930895FE
:100D400064FF03C081E08C9312C01C9210C02F5727
:100D5000304013963C932E93129783E08C9387E058
:100D6000440F551F661F771F8A95D1F7706414963C
:100D70004D935D936D937C93179708951F93DC01BA
:100D8000FB019C91923008F447C08081823008F4C6
:100D900043C0943051F411961C91843099F58181AF
:100DA000682F70E0611B71093FC0843021F09230E0
:100DB00031F48230B9F18181882389F12DC01196F7
:100DC0001C9111978230F1F081811817D9F4129695
:100DD0002D913C911397828193818217930794F010
:100DE00028173907BCF014968D919D910D90BC91F8
:100DF000A02D2481358146815781281739074A075C
:100E00005B0718F4112341F00AC082179307A40767
:100E1000B50740F4112319F061E070E005C06FEFF1
:100E20007FEF02C060E070E0CB011F910895DF9377
:100E3000CF930F92CDB7DEB71982E3E5F0E01082D1
:100E4000AFE5B0E0EFE5F0E0808180688C9381E071
:100E50008983A3E5B0E0E3E5F0E08081877F8C93B0
:100E6000A3E5B0E0E3E5F0E0808180648C9381E06D
:100E70008983A3E5B0E0E3E5F0E0808183608C93B3
:100E800081E0898389810F90CF91DF9108950F933D
:100E90001F93DF93CF93CDB7DEB761970FB6F8946A
:100EA000DEBF0FBECDBF6A877B878C879D875F873C
:100EB0004E87398B288B19868E859F85009709F47C
:100EC00008C18E859F8590938101809380018889D8
:100ED000998990938301809382018FE692E1A3E840
:100EE000B1E48D839E83AF83B8876A857B858C85CB
:100EF0009D850E94A904DC01CB01BC01CD012D819F
:100F00003E814F8158850E94F50318160CF0B3C03E
:100F10006A857B858C859D850E94A904DC01CB01B7
:100F2000BC01CD012D813E814F8158850E9419035E
:100F3000DC01CB0189839A83AB83BC8369817A818D
:100F40008B819C810E944900DC01CB01BC01CD0159
:100F50000E94A9049B01AC0169817A818B819C81EB
:100F60000E94C101DC01CB01BC01CD0120E030E0D9
:100F700040E050E00E94C503882309F450C0698115
:100F80007A818B819C810E944900DC01CB01019612
:100F9000A11DB11D80938C0190938D01A0938E01B2
:100FA000B0938F0169817A818B819C810E94490075
:100FB000DC01CB01BC01CD010E94A9049B01AC0165
:100FC00069817A818B819C810E94C101DC01CB0106
:100FD00089839A83AB83BC8369817A818B819C816D
:100FE00020E030E040E853EC0E941F02DC01CB011E
:100FF000BC01CD0120E030E040E853E40E94F20162
:10100000DC01CB01BC01CD010E944900DC01CB0118
:1010100080938B01E2E0F0E080918B018083A9E571
:10102000B0E0E9E5F0E0808181608C9380918401FB
:10103000282F30E040E050E080918C0190918D01AC
:10104000A0918E01B0918F01281739074A075B07DD
:1010500009F041C0E2E0F0E080918B018083E091F3
:101060008001F09181018091820190918301099525
:101070001092840130C00CE510E06A857B858C8578
:101080009D850E94A904DC01CB01BC01CD012D810D
:101090003E814F8158850E941903DC01CB01BC01C0
:1010A000CD0120E030E040E853E40E941F02DC0163
:1010B000CB01BC01CD010E944900DC01CB01F8014C
:1010C0008083A9E5B0E0E9E5F0E0808182608C935F
:1010D00002C082E08987898561960FB6F894DEBFE9
:1010E0000FBECDBFCF91DF911F910F910895DF9378
:1010F000CF93CDB7DEB762970FB6F894DEBF0FBEC1
:10110000CDBF6A877B878C879D8719868FE692E1A2
:10111000A3E8B1E48D839E83AF83B8876A857B851E
:101120008C859D850E94A904DC01CB01BC01CD0109
:101130002D813E814F8158850E94F50318160CF0D1
:10114000C2C06A857B858C859D850E94A904DC01CF
:10115000CB01BC01CD012D813E814F8158850E947C
:101160001903DC01CB0189839A83AB83BC8369813A
:101170007A818B819C810E944900DC01CB01BC01FA
:10118000CD010E94A9049B01AC0169817A818B8108
:101190009C810E94C101DC01CB01BC01CD0120E09A
:1011A00030E040E050E00E94C503882309F462C0AB
:1011B00069817A818B819C810E944900DC01CB018D
:1011C0000196A11DB11D80938C0190938D01A09378
:1011D0008E01B0938F0169817A818B819C810E94FD
:1011E0004900DC01CB01BC01CD010E94A9049B0197
:1011F000AC0169817A818B819C810E94C101DC01F3
:10120000CB0189839A83AB83BC8369817A818B818B
:101210009C8120E030E040E853EC0E941F02DC019A
:10122000CB01BC01CD0120E030E040E853E40E9456
:10123000F201DC01CB01BC01CD010E944900DC01BF
:10124000CB0180938B01E2E0F0E080918B01808301
:1012500011C0E8E5F0E080818695882F90E08170EC
:1012600090700097B1F3A8E5B0E0E8E5F0E0808188
:1012700082608C9380918C0190918D01A0918E0160
:10128000B0918F018F87988BA98BBA8B1E868F8523
:101290009889A989BA890097A105B10511F091E053
:1012A0009E878F859889A989BA890197A109B10973
:1012B00080938C0190938D01A0938E01B0938F0148
:1012C000AE85AA2331F681E08987898562960FB6BB
:1012D000F894DEBF0FBECDBFCF91DF910895EF929E
:1012E000FF920F931F93DF93CF93CDB7DEB729976C
:1012F0000FB6F894DEBF0FBECDBF6E837F838887A5
:1013000099871D826E817F818885998520E030E0F4
:1013100040EA50E40E941903DC01CB017C018D01FD
:101320006E817F818885998520E030E040EA50E435
:101330000E941903DC01CB019C01AD01C801B7017A
:101340000E941F02DC01CB0189839A83AB83BC839B
:10135000A3E5B0E0E3E5F0E080818F7E8C93A3E528
:10136000B0E0E3E5F0E0808180628C930CE510E072
:1013700069817A818B819C8120E030E04FE753E4E2
:101380000E941F02DC01CB01BC01CD010E9449007B
:10139000DC01CB01F801808381E08D838D8129966A
:1013A0000FB6F894DEBF0FBECDBFCF91DF911F9176
:1013B0000F91FF90EF9008951F920F920FB60F922A
:1013C00011248F93DF93CF93CDB7DEB78091840143
:1013D0008F5F80938401CF91DF918F910F900FBE2B
:1013E0000F901F9018951F920F920FB60F92112415
:1013F0002F933F934F935F936F937F938F939F931D
:10140000AF93BF93EF93FF93DF93CF93CDB7DEB747
:101410008091800190918101009749F0E0918001D5
:10142000F091810180918201909183010995CF9182
:10143000DF91FF91EF91BF91AF919F918F917F913C
:101440006F915F914F913F912F910F900FBE0F9031
:101450001F901895DF93CF930F92CDB7DEB7198207
:10146000AFE5B0E0EFE5F0E0808180688C9381E04B
:10147000898389810F90CF91DF910895DF93CF9376
:101480000F92CDB7DEB71982AFE5B0E0EFE5F0E03F
:1014900080818F778C9381E0898389810F90CF91B0
:1014A000DF910895DF93CF930F92CDB7DEB7198206
:1014B000A5E5B0E0E5E5F0E08081807F8C93A5E5CF
:1014C000B0E0E5E5F0E0808183608C93A5E5B0E0D5
:1014D000E5E5F0E0808184608C93ABE5B0E0EBE57E
:1014E000F0E0808180648C93ABE5B0E0EBE5F0E068
:1014F000808180688C93ABE5B0E0EBE5F0E0808123
:1015000080628C93AAE5B0E0EAE5F0E08081806E2D
:101510008C9389810F90CF91DF910895DF93CF93C2
:1015200000D0CDB7DEB78A8319828A81843068F50E
:101530008A81882341F4ABE5B0E0EBE5F0E08081FF
:1015400080648C9320C08A81813041F4ABE5B0E0A7
:10155000EBE5F0E0808180688C9315C08A81823051
:1015600041F4ABE5B0E0EBE5F0E0808180628C9384
:101570000AC08A81833039F4AFE5B0E0EFE5F0E0EE
:10158000808180688C9381E0898389810F900F909E
:10159000CF91DF910895DF93CF9300D0CDB7DEB721
:1015A0008A8319828A81843068F58A81882341F48C
:1015B000ABE5B0E0EBE5F0E080818F7B8C9320C061
:1015C0008A81813041F4ABE5B0E0EBE5F0E0808169
:1015D0008F778C9315C08A81823041F4ABE5B0E0FF
:1015E000EBE5F0E080818F7D8C930AC08A818330A7
:1015F00039F4AFE5B0E0EFE5F0E080818F778C93D0
:1016000081E0898389810F900F90CF91DF910895B8
:10161000DF93CF9300D000D000D0CDB7DEB79B834F
:101620008A836C8319828A819B81009761F18C8106
:10163000833048F58C81282F30E03E832D838D81C7
:101640009E818130910581F02D813E8122303105CE
:1016500091F08D819E810097A1F48A819B81909366
:101660008601809385010DC08A819B8190938801BA
:101670008093870106C08A819B8190938A01809321
:10168000890181E08983898126960FB6F894DEBFAF
:101690000FBECDBFCF91DF9108951F920F920FB66D
:1016A0000F9211242F933F934F935F936F937F93E8
:1016B0008F939F93AF93BF93EF93FF93DF93CF935A
:1016C000CDB7DEB78091850190918601009729F012
:1016D000E0918501F09186010995CF91DF91FF910D
:1016E000EF91BF91AF919F918F917F916F915F919A
:1016F0004F913F912F910F900FBE0F901F90189513
:101700001F920F920FB60F9211242F933F934F9376
:101710005F936F937F938F939F93AF93BF93EF9359
:10172000FF93DF93CF93CDB7DEB780918701909180
:101730008801009729F0E0918701F09188010995CF
:10174000CF91DF91FF91EF91BF91AF919F918F91D9
:101750007F916F915F914F913F912F910F900FBEAD
:101760000F901F9018951F920F920FB60F92112491
:101770002F933F934F935F936F937F938F939F9399
:10178000AF93BF93EF93FF93DF93CF93CDB7DEB7C4
:101790008091890190918A01009729F0E091890157
:1017A000F0918A010995CF91DF91FF91EF91BF915F
:1017B000AF919F918F917F916F915F914F913F91E9
:1017C0002F910F900FBE0F901F901895DF93CF931E
:1017D0000F92CDB7DEB71982EAE3F0E08FEF808396
:1017E000E7E3F0E08FEF8083E4E3F0E086E98083D5
:1017F000E1E3F0E082E98083EBE3F0E0108281E056
:10180000898389810F90CF91DF910895DF93CF93E2
:1018100000D000D00F92CDB7DEB78A836B831982D8
:101820008A818430A8F58A81282F30E03D832C837B
:101830008C819D8181309105D1F02C813D812230B8
:1018400031052CF48C819D81009761F01EC02C81A4
:101850003D812230310581F08C819D81833091055D
:1018600081F013C0EAE3F0E08B8180830EC0E7E3F0
:10187000F0E08B81808309C0E4E3F0E08B8180831A
:1018800004C0E1E3F0E08B81808381E0898302C0C2
:1018900083E0898389810F900F900F900F900F90B4
:1018A000CF91DF910895DF93CF9300D000D00F92B6
:1018B000CDB7DEB78A836B8319828A818430A8F51D
:1018C0008A81282F30E03D832C838C819D8181305B
:1018D0009105D1F02C813D81223031052CF48C8191
:1018E0009D81009761F01EC02C813D812230310521
:1018F00081F08C819D818330910581F013C0EBE3F1
:10190000F0E08B8180830EC0E8E3F0E08B81808380
:1019100009C0E5E3F0E08B81808304C0E2E3F0E0FE
:101920008B81808381E0898302C083E08983898100
:101930000F900F900F900F900F90CF91DF9108951F
:10194000DF93CF9300D000D0CDB7DEB78A83198262
:101950008A81843008F041C08A81282F30E03C839E
:101960002B838B819C8181309105E9F02B813C8117
:10197000223031052CF48B819C81009761F02AC0C4
:101980002B813C8122303105B1F08B819C818330E9
:101990009105C9F01FC0ABE3B0E0EBE3F0E080815C
:1019A00080958C9317C0A8E3B0E0E8E3F0E0808175
:1019B00080958C930FC0A5E3B0E0E5E3F0E0808173
:1019C00080958C9307C0A2E3B0E0E2E3F0E0808171
:1019D00080958C9381E0898302C083E0898389812B
:1019E0000F900F900F900F90CF91DF910895DF939C
:1019F000CF9300D000D000D0CDB7DEB78A837C83F0
:101A00006B8319828B819C81009709F443C08A8182
:101A10008430E8F58A81282F30E03E832D838D8144
:101A20009E8181309105E1F02D813E81223031058A
:101A30002CF48D819E81009761F026C02D813E811E
:101A400022303105A1F08D819E8183309105B1F066
:101A50001BC0E9E3F0E08081EB81FC81808314C04E
:101A6000E6E3F0E08081EB81FC8180830DC0E3E35D
:101A7000F0E08081EB81FC81808306C0E0E3F0E050
:101A80008081EB81FC81808381E0898305C083E0D4
:101A9000898302C082E08983898126960FB6F894F3
:101AA000DEBF0FBECDBFCF91DF910895DF93CF93FF
:101AB00000D000D000D0CDB7DEB78A836B834C83D3
:101AC00019828A81843008F0D1C08B81883008F077
:101AD000CDC08C81823008F0C9C08A81282F30E0C7
:101AE0003E832D836D817E816130710509F441C093
:101AF0008D819E818230910534F42D813E812115A6
:101B0000310571F0B0C06D817E816230710509F4DC
:101B100059C08D819E818330910509F47CC0A3C09A
:101B2000AAE3B0E0EAE3F0E08081482F8B81282F20
:101B300030E081E090E002C0880F991F2A95E2F71B
:101B4000809584238C93AAE3B0E0EAE3F0E08081FF
:101B5000482F8C81282F30E08B81882F90E0B901AD
:101B600002C0660F771F8A95E2F7CB01842B8C9316
:101B70007AC0A7E3B0E0E7E3F0E08081482F8B81F3
:101B8000282F30E081E090E002C0880F991F2A954D
:101B9000E2F7809584238C93A7E3B0E0E7E3F0E0DD
:101BA0008081482F8C81282F30E08B81882F90E016
:101BB000B90102C0660F771F8A95E2F7CB01842B2B
:101BC0008C9351C0A4E3B0E0E4E3F0E08081482FBF
:101BD0008B81282F30E081E090E002C0880F991FB0
:101BE0002A95E2F7809584238C93A4E3B0E0E4E3A4
:101BF000F0E08081482F8C81282F30E08B81882F66
:101C000090E0B90102C0660F771F8A95E2F7CB0119
:101C1000842B8C9328C0A1E3B0E0E1E3F0E0808165
:101C2000482F8B81282F30E081E090E002C0880FA0
:101C3000991F2A95E2F7809584238C93A1E3B0E065
:101C4000E1E3F0E08081482F8C81282F30E08B8108
:101C5000882F90E0B90102C0660F771F8A95E2F7DE
:101C6000CB01842B8C9381E0898302C083E089833C
:101C7000898126960FB6F894DEBF0FBECDBFCF91F7
:101C8000DF910895DF93CF9300D000D000D0CDB77F
:101C9000DEB78A836B834C8319828A81843008F093
:101CA000D1C08B81883008F0CDC08C81823008F0A3
:101CB000C9C08A81282F30E03E832D836D817E81CB
:101CC0006130710509F441C08D819E81823091059A
:101CD00034F42D813E812115310571F0B0C06D8144
:101CE0007E816230710509F459C08D819E818330F7
:101CF000910509F47CC0A3C0ABE3B0E0EBE3F0E0F6
:101D00008081482F8B81282F30E081E090E002C055
:101D1000880F991F2A95E2F7809584238C93ABE373
:101D2000B0E0EBE3F0E08081482F8C81282F30E099
:101D30008B81882F90E0B90102C0660F771F8A95CA
:101D4000E2F7CB01842B8C937AC0A8E3B0E0E8E300
:101D5000F0E08081482F8B81282F30E081E090E0F7
:101D600002C0880F991F2A95E2F7809584238C93EF
:101D7000A8E3B0E0E8E3F0E08081482F8C81282FD1
:101D800030E08B81882F90E0B90102C0660F771F89
:101D90008A95E2F7CB01842B8C9351C0A5E3B0E088
:101DA000E5E3F0E08081482F8B81282F30E081E04F
:101DB00090E002C0880F991F2A95E2F7809584234E
:101DC0008C93A5E3B0E0E5E3F0E08081482F8C81BF
:101DD000282F30E08B81882F90E0B90102C0660F78
:101DE000771F8A95E2F7CB01842B8C9328C0A2E35E
:101DF000B0E0E2E3F0E08081482F8B81282F30E0D3
:101E000081E090E002C0880F991F2A95E2F7809543
:101E100084238C93A2E3B0E0E2E3F0E08081482FDA
:101E20008C81282F30E08B81882F90E0B90102C08F
:101E3000660F771F8A95E2F7CB01842B8C9381E0A4
:101E4000898302C083E08983898126960FB6F8943E
:101E5000DEBF0FBECDBFCF91DF910895DF93CF934B
:101E600000D000D00F92CDB7DEB78A836B83198282
:101E70008A81843008F075C08B81883008F071C089
:101E80008A81282F30E03D832C838C819D81813095
:101E9000910549F12C813D81223031052CF48C8152
:101EA0009D81009761F05AC02C813D81223031051F
:101EB00071F18C819D8183309105E9F14FC0ABE3D5
:101EC000B0E0EBE3F0E08081482F8B81282F30E0F9
:101ED00081E090E0022E02C0880F991F0A94E2F779
:101EE00084278C933BC0A8E3B0E0E8E3F0E0808176
:101EF000482F8B81282F30E081E090E0022E02C035
:101F0000880F991F0A94E2F784278C9327C0A5E3D2
:101F1000B0E0E5E3F0E08081482F8B81282F30E0AE
:101F200081E090E0022E02C0880F991F0A94E2F728
:101F300084278C9313C0A2E3B0E0E2E3F0E0808159
:101F4000482F8B81282F30E081E090E0022E02C0E4
:101F5000880F991F0A94E2F784278C9381E0898384
:101F600002C083E0898389810F900F900F900F90BA
:101F70000F90CF91DF910895DF93CF93CDB7DEB768
:101F800027970FB6F894DEBF0FBECDBF8A836B8351
:101F90005D834C8319828C819D81009709F47EC0FA
:101FA0008A81843008F077C08B81883008F073C054
:101FB0008A81282F30E03F832E834E815F8141301C
:101FC000510559F18E819F818230910534F42E8123
:101FD0003F812115310569F05BC04E815F81423040
:101FE000510579F18E819F818330910509F43DC0BF
:101FF0004FC0E9E3F0E08081282F30E08B81882F0B
:1020000090E0A90102C0559547958A95E2F7CA016B
:102010008170EC81FD8180833BC0E6E3F0E080814C
:10202000282F30E08B81882F90E0A90102C05595C0
:1020300047958A95E2F7CA018170EC81FD81808322
:1020400027C0E3E3F0E08081282F30E08B81882FE8
:1020500090E0A90102C0559547958A95E2F7CA011B
:102060008170EC81FD81808313C0E0E3F0E080812A
:10207000282F30E08B81882F90E0A90102C0559570
:1020800047958A95E2F7CA018170EC81FD818083D2
:1020900081E0898305C083E0898302C082E089836F
:1020A000898127960FB6F894DEBF0FBECDBFCF91C2
:1020B000DF910895DF93CF9300D000D0CDB7DEB786
:1020C0009C838B831A828B819C81009709F45CC06E
:1020D000198255C08981882F90E09C01220F331FFF
:1020E000220F331F8B819C81FC01E20FF31F408183
:1020F0008981882F90E09C01220F331F220F331F0C
:102100008B819C81FC01E20FF31F9181842F692F49
:1021100041E00E94560D8A838981882F90E09C01BE
:10212000220F331F220F331F8B819C81FC01E20F92
:10213000F31F50818981882F90E09C01220F331F6B
:10214000220F331F8B819C81FC01E20FF31F418121
:102150008981882F90E09C01220F331F220F331FAB
:102160008B819C81FC01E20FF31F9381852F642FEB
:10217000492F0E94420E8A8389818F5F89838981DA
:10218000863008F4A7CF02C082E08A838A810F904C
:102190000F900F900F90CF91DF910895DF93CF9321
:1021A00000D00F92CDB7DEB79B838A8319828A81D4
:1021B0009B81009729F1EA81FB818281813061F462
:1021C000EA81FB818081EA81FB819181692F40E076
:1021D0000E94420E898316C0EA81FB818281882396
:1021E00061F4EA81FB818081EA81FB819181692F21
:1021F00041E00E94420E898305C083E0898302C0CA
:1022000082E0898389810F900F900F90CF91DF91A9
:102210000895DF93CF9300D00F92CDB7DEB79B83A5
:102220008A8319828A819B81009729F1EA81FB8147
:102230008281813061F4EA81FB818081EA81FB81C6
:102240009181692F41E00E94420E898316C0EA8184
:10225000FB818281882361F4EA81FB818081EA81AC
:10226000FB819181692F40E00E94420E898305C065
:1022700083E0898302C082E0898389810F900F9077
:102280000F90CF91DF910895DF93CF93CDB7DEB755
:102290000E94170781E063E041E00E94560D6AE961
:1022A00079E989E39FE30E946F09F9CF2F923F926A
:1022B0004F925F926F927F928F929F92AF92BF9256
:1022C000CF92DF92EF92FF920F931F93CF93DF9302
:1022D000CDB7DEB7CA1BDB0B0FB6F894DEBF0FBE5F
:1022E000CDBF09942A88398848885F846E847D84AC
:1022F0008C849B84AA84B984C884DF80EE80FD80AE
:102300000C811B81AA81B981CE0FD11D0FB6F89423
:0E231000DEBF0FBECDBFED010895F894FFCFE4
:10231E00000000000000000000010202030303039E
:10232E000404040404040404050505050505050557
:10233E000505050505050505060606060606060637
:10234E00060606060606060606060606060606061F
:10235E000606060606060606070707070707070707
:10236E0007070707070707070707070707070707EF
:10237E0007070707070707070707070707070707DF
:10238E0007070707070707070707070707070707CF
:10239E0007070707070707070808080808080808B7
:1023AE00080808080808080808080808080808089F
:1023BE00080808080808080808080808080808088F
:1023CE00080808080808080808080808080808087F
:1023DE00080808080808080808080808080808086F
:1023EE00080808080808080808080808080808085F
:1023FE00080808080808080808080808080808084F
:10240E00080808080808080808080808080808083E
:10241E00080808080808080802070000020400005F
:10242E000202000003000000030300000306000088
:00000001FF
