:100000000C942A000C9434000C9434000C943400AA
:100010000C9434000C9434000C9434000C94340090
:100020000C9434000C9434000C9434000C94340080
:100030000C9434000C9434000C9434000C94340070
:100040000C9434000C9434000C9434000C94340060
:100050000C94340011241FBECFE5D8E0DEBFCDBF25
:100060000E9436000C9485000C9400008AB39BB368
:1000700083609BBB8ABB8BB39CB38C7F9CBB8BBBCD
:1000800087B398B3887F98BB87BB88B399B38760E1
:1000900099BB88BB8BB39CB38C7F9CBB8BBB46B39B
:1000A00057B366B377B361FB222720F930E066B31C
:1000B00077B362FBEE27E0F9F0E0BA0161707727D1
:1000C00040FD0AC02130310539F4E130F10521F459
:1000D00081609CBB8BBBDECF6130710551F4211573
:1000E000310539F4E130F10521F482609CBB8BBB12
:1000F000D1CF6130710571F62130310559F6EF2B02
:0E01000049F683609CBB8BBBC5CFF894FFCF44
:00000001FF
